{
  "contractName": "Trade_Template",
  "abi": [
    {
      "inputs": [
        {
          "internalType": "contract ERC20",
          "name": "erc20Address",
          "type": "address"
        }
      ],
      "payable": false,
      "stateMutability": "nonpayable",
      "type": "constructor"
    },
    {
      "constant": false,
      "inputs": [
        {
          "internalType": "address",
          "name": "buyer",
          "type": "address"
        }
      ],
      "name": "registerBuyer",
      "outputs": [],
      "payable": false,
      "stateMutability": "nonpayable",
      "type": "function"
    },
    {
      "constant": false,
      "inputs": [
        {
          "internalType": "address",
          "name": "seller",
          "type": "address"
        }
      ],
      "name": "registerSeller",
      "outputs": [],
      "payable": false,
      "stateMutability": "nonpayable",
      "type": "function"
    },
    {
      "constant": false,
      "inputs": [
        {
          "internalType": "address",
          "name": "inspector",
          "type": "address"
        }
      ],
      "name": "registerInspector",
      "outputs": [],
      "payable": false,
      "stateMutability": "nonpayable",
      "type": "function"
    },
    {
      "constant": false,
      "inputs": [
        {
          "internalType": "uint256",
          "name": "prodId",
          "type": "uint256"
        },
        {
          "internalType": "uint256",
          "name": "price",
          "type": "uint256"
        }
      ],
      "name": "listProduct",
      "outputs": [],
      "payable": false,
      "stateMutability": "nonpayable",
      "type": "function"
    },
    {
      "constant": false,
      "inputs": [
        {
          "internalType": "uint256",
          "name": "prodId",
          "type": "uint256"
        },
        {
          "internalType": "uint256",
          "name": "quantity",
          "type": "uint256"
        },
        {
          "internalType": "address",
          "name": "appointedInspector",
          "type": "address"
        }
      ],
      "name": "buyProduct",
      "outputs": [
        {
          "internalType": "uint256",
          "name": "saleId",
          "type": "uint256"
        }
      ],
      "payable": false,
      "stateMutability": "nonpayable",
      "type": "function"
    },
    {
      "constant": false,
      "inputs": [
        {
          "internalType": "uint256",
          "name": "saleId",
          "type": "uint256"
        }
      ],
      "name": "acceptSale",
      "outputs": [],
      "payable": false,
      "stateMutability": "nonpayable",
      "type": "function"
    },
    {
      "constant": false,
      "inputs": [
        {
          "internalType": "uint256",
          "name": "saleId",
          "type": "uint256"
        }
      ],
      "name": "rejectSale",
      "outputs": [],
      "payable": false,
      "stateMutability": "nonpayable",
      "type": "function"
    },
    {
      "constant": true,
      "inputs": [
        {
          "internalType": "address",
          "name": "buyer",
          "type": "address"
        }
      ],
      "name": "numBought",
      "outputs": [
        {
          "internalType": "uint256",
          "name": "",
          "type": "uint256"
        }
      ],
      "payable": false,
      "stateMutability": "view",
      "type": "function"
    },
    {
      "constant": true,
      "inputs": [
        {
          "internalType": "address",
          "name": "seller",
          "type": "address"
        }
      ],
      "name": "numSold",
      "outputs": [
        {
          "internalType": "uint256",
          "name": "",
          "type": "uint256"
        }
      ],
      "payable": false,
      "stateMutability": "view",
      "type": "function"
    }
  ],
  "bytecode": "0x6080604052336000806101000a81548173ffffffffffffffffffffffffffffffffffffffff021916908373ffffffffffffffffffffffffffffffffffffffff160217905550600060055534801561005557600080fd5b506040516123a83803806123a88339818101604052602081101561007857600080fd5b810190808051906020019092919050505080600160006101000a81548173ffffffffffffffffffffffffffffffffffffffff021916908373ffffffffffffffffffffffffffffffffffffffff160217905550506122ce806100da6000396000f3fe608060405234801561001057600080fd5b50600436106100935760003560e01c80635f64f7b3116100665780635f64f7b3146101d85780636cb326bf14610206578063a9205db914610234578063b36b2b291461028c578063b9281d35146102d057610093565b80633f2965f0146100985780633fa93ac0146100dc57806344a2d466146101345780635d6df2da1461016c575b600080fd5b6100da600480360360208110156100ae57600080fd5b81019080803573ffffffffffffffffffffffffffffffffffffffff169060200190929190505050610314565b005b61011e600480360360208110156100f257600080fd5b81019080803573ffffffffffffffffffffffffffffffffffffffff169060200190929190505050610538565b6040518082815260200191505060405180910390f35b61016a6004803603604081101561014a57600080fd5b8101908080359060200190929190803590602001909291905050506105fa565b005b6101c26004803603606081101561018257600080fd5b810190808035906020019092919080359060200190929190803573ffffffffffffffffffffffffffffffffffffffff16906020019092919050505061084b565b6040518082815260200191505060405180910390f35b610204600480360360208110156101ee57600080fd5b8101908080359060200190929190505050610e1b565b005b6102326004803603602081101561021c57600080fd5b810190808035906020019092919050505061136f565b005b6102766004803603602081101561024a57600080fd5b81019080803573ffffffffffffffffffffffffffffffffffffffff16906020019092919050505061165e565b6040518082815260200191505060405180910390f35b6102ce600480360360208110156102a257600080fd5b81019080803573ffffffffffffffffffffffffffffffffffffffff169060200190929190505050611720565b005b610312600480360360208110156102e657600080fd5b81019080803573ffffffffffffffffffffffffffffffffffffffff169060200190929190505050611944565b005b6000809054906101000a900473ffffffffffffffffffffffffffffffffffffffff1673ffffffffffffffffffffffffffffffffffffffff163373ffffffffffffffffffffffffffffffffffffffff16146103d6576040517f08c379a00000000000000000000000000000000000000000000000000000000081526004018080602001828103825260128152602001807f6f776e6572206f6e6c7920616374696f6e2e000000000000000000000000000081525060200191505060405180910390fd5b6104156040518060400160405280600681526020017f73656c6c6572000000000000000000000000000000000000000000000000000081525082611b68565b15610488576040517f08c379a00000000000000000000000000000000000000000000000000000000081526004018080602001828103825260168152602001807f53656c6c657220616c7265616479206578697374732e0000000000000000000081525060200191505060405180910390fd5b600360405180604001604052808373ffffffffffffffffffffffffffffffffffffffff16815260200160008152509080600181540180825580915050906001820390600052602060002090600202016000909192909190915060008201518160000160006101000a81548173ffffffffffffffffffffffffffffffffffffffff021916908373ffffffffffffffffffffffffffffffffffffffff1602179055506020820151816001015550505050565b600080600090505b6002805490508110156105f3578273ffffffffffffffffffffffffffffffffffffffff166002828154811061057157fe5b906000526020600020906002020160000160009054906101000a900473ffffffffffffffffffffffffffffffffffffffff1673ffffffffffffffffffffffffffffffffffffffff1614156105e657600281815481106105cc57fe5b9060005260206000209060020201600101549150506105f5565b8080600101915050610540565b505b919050565b6106396040518060400160405280600681526020017f73656c6c6572000000000000000000000000000000000000000000000000000081525033611b68565b61068e576040517f08c379a00000000000000000000000000000000000000000000000000000000081526004018080602001828103825260288152602001806122206028913960400191505060405180910390fd5b610697826120d3565b610709576040517f08c379a00000000000000000000000000000000000000000000000000000000081526004018080602001828103825260158152602001807f70726f6475637420496420697320696e207573652e000000000000000000000081525060200191505060405180910390fd5b6000811161077f576040517f08c379a00000000000000000000000000000000000000000000000000000000081526004018080602001828103825260128152602001807f7072696365206d757374206265203e20302e000000000000000000000000000081525060200191505060405180910390fd5b61078761212f565b60405180606001604052808481526020018381526020013373ffffffffffffffffffffffffffffffffffffffff16815250905060068190806001815401808255809150509060018203906000526020600020906003020160009091929091909150600082015181600001556020820151816001015560408201518160020160006101000a81548173ffffffffffffffffffffffffffffffffffffffff021916908373ffffffffffffffffffffffffffffffffffffffff160217905550505050505050565b600061088c6040518060400160405280600581526020017f627579657200000000000000000000000000000000000000000000000000000081525033611b68565b6108e1576040517f08c379a00000000000000000000000000000000000000000000000000000000081526004018080602001828103825260278152602001806122486027913960400191505060405180910390fd5b6108ea846120d3565b61095c576040517f08c379a000000000000000000000000000000000000000000000000000000000815260040180806020018281038252601a8152602001807f70726f6475637420494420646f6573206e6f742065786973742e00000000000081525060200191505060405180910390fd5b600083116109d2576040517f08c379a000000000000000000000000000000000000000000000000000000000815260040180806020018281038252601d8152602001807f777466206272756820696e70757420696e207572207175616e7469747900000081525060200191505060405180910390fd5b610a116040518060400160405280600981526020017f696e73706563746f72000000000000000000000000000000000000000000000081525083611b68565b610a66576040517f08c379a00000000000000000000000000000000000000000000000000000000081526004018080602001828103825260218152602001806121ff6021913960400191505060405180910390fd5b610a6e61212f565b60008090505b600680549050811015610b47578560068281548110610a8f57fe5b9060005260206000209060030201600001541415610b3a5760068181548110610ab457fe5b906000526020600020906003020160405180606001604052908160008201548152602001600182015481526020016002820160009054906101000a900473ffffffffffffffffffffffffffffffffffffffff1673ffffffffffffffffffffffffffffffffffffffff1673ffffffffffffffffffffffffffffffffffffffff168152505091505b8080600101915050610a74565b50610b50612166565b6040518060a0016040528060055481526020013373ffffffffffffffffffffffffffffffffffffffff1681526020018573ffffffffffffffffffffffffffffffffffffffff168152602001868152602001838152509050600781908060018154018082558091505090600182039060005260206000209060070201600090919290919091506000820151816000015560208201518160010160006101000a81548173ffffffffffffffffffffffffffffffffffffffff021916908373ffffffffffffffffffffffffffffffffffffffff16021790555060408201518160020160006101000a81548173ffffffffffffffffffffffffffffffffffffffff021916908373ffffffffffffffffffffffffffffffffffffffff16021790555060608201518160030155608082015181600401600082015181600001556020820151816001015560408201518160020160006101000a81548173ffffffffffffffffffffffffffffffffffffffff021916908373ffffffffffffffffffffffffffffffffffffffff1602179055505050505050600160009054906101000a900473ffffffffffffffffffffffffffffffffffffffff1673ffffffffffffffffffffffffffffffffffffffff1663ad2211953330888660200151026040518463ffffffff1660e01b8152600401808473ffffffffffffffffffffffffffffffffffffffff1673ffffffffffffffffffffffffffffffffffffffff1681526020018373ffffffffffffffffffffffffffffffffffffffff1673ffffffffffffffffffffffffffffffffffffffff1681526020018281526020019350505050602060405180830381600087803b158015610dc357600080fd5b505af1158015610dd7573d6000803e3d6000fd5b505050506040513d6020811015610ded57600080fd5b8101908080519060200190929190505050506005600081548092919060010191905055925050509392505050565b610e5a6040518060400160405280600981526020017f696e73706563746f72000000000000000000000000000000000000000000000081525033611b68565b610eaf576040517f08c379a000000000000000000000000000000000000000000000000000000000815260040180806020018281038252602b81526020018061226f602b913960400191505060405180910390fd5b600060078281548110610ebe57fe5b90600052602060002090600702016003015460078381548110610edd57fe5b906000526020600020906007020160040160010154029050600080600160009054906101000a900473ffffffffffffffffffffffffffffffffffffffff1673ffffffffffffffffffffffffffffffffffffffff1663ad2211953060078781548110610f4457fe5b906000526020600020906007020160040160020160009054906101000a900473ffffffffffffffffffffffffffffffffffffffff16866040518463ffffffff1660e01b8152600401808473ffffffffffffffffffffffffffffffffffffffff1673ffffffffffffffffffffffffffffffffffffffff1681526020018373ffffffffffffffffffffffffffffffffffffffff1673ffffffffffffffffffffffffffffffffffffffff1681526020018281526020019350505050602060405180830381600087803b15801561101657600080fd5b505af115801561102a573d6000803e3d6000fd5b505050506040513d602081101561104057600080fd5b81019080805190602001909291905050505060008090505b60078054905081101561112257846007828154811061107357fe5b9060005260206000209060070201600001541415611115576007818154811061109857fe5b906000526020600020906007020160010160009054906101000a900473ffffffffffffffffffffffffffffffffffffffff169250600781815481106110d957fe5b906000526020600020906007020160040160020160009054906101000a900473ffffffffffffffffffffffffffffffffffffffff169150611122565b8080600101915050611058565b5060008090505b6002805490508110156111e8578273ffffffffffffffffffffffffffffffffffffffff166002828154811061115a57fe5b906000526020600020906002020160000160009054906101000a900473ffffffffffffffffffffffffffffffffffffffff1673ffffffffffffffffffffffffffffffffffffffff1614156111db57600281815481106111b557fe5b9060005260206000209060020201600101600081548092919060010191905055506111e8565b8080600101915050611129565b5060008090505b6003805490508110156112ae578173ffffffffffffffffffffffffffffffffffffffff166003828154811061122057fe5b906000526020600020906002020160000160009054906101000a900473ffffffffffffffffffffffffffffffffffffffff1673ffffffffffffffffffffffffffffffffffffffff1614156112a1576003818154811061127b57fe5b9060005260206000209060020201600101600081548092919060010191905055506112ae565b80806001019150506111ef565b50600784815481106112bc57fe5b90600052602060002090600702016000808201600090556001820160006101000a81549073ffffffffffffffffffffffffffffffffffffffff02191690556002820160006101000a81549073ffffffffffffffffffffffffffffffffffffffff021916905560038201600090556004820160008082016000905560018201600090556002820160006101000a81549073ffffffffffffffffffffffffffffffffffffffff02191690555050505050505050565b6113ae6040518060400160405280600981526020017f696e73706563746f72000000000000000000000000000000000000000000000081525033611b68565b611403576040517f08c379a000000000000000000000000000000000000000000000000000000000815260040180806020018281038252602b81526020018061226f602b913960400191505060405180910390fd5b60006007828154811061141257fe5b9060005260206000209060070201600301546007838154811061143157fe5b906000526020600020906007020160040160010154029050600160009054906101000a900473ffffffffffffffffffffffffffffffffffffffff1673ffffffffffffffffffffffffffffffffffffffff1663ad221195306007858154811061149557fe5b906000526020600020906007020160010160009054906101000a900473ffffffffffffffffffffffffffffffffffffffff16846040518463ffffffff1660e01b8152600401808473ffffffffffffffffffffffffffffffffffffffff1673ffffffffffffffffffffffffffffffffffffffff1681526020018373ffffffffffffffffffffffffffffffffffffffff1673ffffffffffffffffffffffffffffffffffffffff1681526020018281526020019350505050602060405180830381600087803b15801561156457600080fd5b505af1158015611578573d6000803e3d6000fd5b505050506040513d602081101561158e57600080fd5b810190808051906020019092919050505050600782815481106115ad57fe5b90600052602060002090600702016000808201600090556001820160006101000a81549073ffffffffffffffffffffffffffffffffffffffff02191690556002820160006101000a81549073ffffffffffffffffffffffffffffffffffffffff021916905560038201600090556004820160008082016000905560018201600090556002820160006101000a81549073ffffffffffffffffffffffffffffffffffffffff0219169055505050505050565b600080600090505b600380549050811015611719578273ffffffffffffffffffffffffffffffffffffffff166003828154811061169757fe5b906000526020600020906002020160000160009054906101000a900473ffffffffffffffffffffffffffffffffffffffff1673ffffffffffffffffffffffffffffffffffffffff16141561170c57600381815481106116f257fe5b90600052602060002090600202016001015491505061171b565b8080600101915050611666565b505b919050565b6000809054906101000a900473ffffffffffffffffffffffffffffffffffffffff1673ffffffffffffffffffffffffffffffffffffffff163373ffffffffffffffffffffffffffffffffffffffff16146117e2576040517f08c379a00000000000000000000000000000000000000000000000000000000081526004018080602001828103825260128152602001807f6f776e6572206f6e6c7920616374696f6e2e000000000000000000000000000081525060200191505060405180910390fd5b6118216040518060400160405280600981526020017f696e73706563746f72000000000000000000000000000000000000000000000081525082611b68565b15611894576040517f08c379a00000000000000000000000000000000000000000000000000000000081526004018080602001828103825260198152602001807f496e73706563746f7220616c7265616479206578697374732e0000000000000081525060200191505060405180910390fd5b600460405180604001604052808373ffffffffffffffffffffffffffffffffffffffff16815260200160008152509080600181540180825580915050906001820390600052602060002090600202016000909192909190915060008201518160000160006101000a81548173ffffffffffffffffffffffffffffffffffffffff021916908373ffffffffffffffffffffffffffffffffffffffff1602179055506020820151816001015550505050565b6000809054906101000a900473ffffffffffffffffffffffffffffffffffffffff1673ffffffffffffffffffffffffffffffffffffffff163373ffffffffffffffffffffffffffffffffffffffff1614611a06576040517f08c379a00000000000000000000000000000000000000000000000000000000081526004018080602001828103825260128152602001807f6f776e6572206f6e6c7920616374696f6e2e000000000000000000000000000081525060200191505060405180910390fd5b611a456040518060400160405280600581526020017f627579657200000000000000000000000000000000000000000000000000000081525082611b68565b15611ab8576040517f08c379a00000000000000000000000000000000000000000000000000000000081526004018080602001828103825260158152602001807f427579657220616c7265616479206578697374732e000000000000000000000081525060200191505060405180910390fd5b600260405180604001604052808373ffffffffffffffffffffffffffffffffffffffff16815260200160008152509080600181540180825580915050906001820390600052602060002090600202016000909192909190915060008201518160000160006101000a81548173ffffffffffffffffffffffffffffffffffffffff021916908373ffffffffffffffffffffffffffffffffffffffff1602179055506020820151816001015550505050565b60008060009050606060405160200180807f6275796572000000000000000000000000000000000000000000000000000000815250600501905060405160208183030381529060405280519060200120856040516020018082805190602001908083835b60208310611bef5780518252602082019150602081019050602083039250611bcc565b6001836020036101000a038019825116818451168082178552505050505050905001915050604051602081830303815290604052805190602001201415611cef576002805480602002602001604051908101604052809291908181526020016000905b82821015611ce457838290600052602060002090600202016040518060400160405290816000820160009054906101000a900473ffffffffffffffffffffffffffffffffffffffff1673ffffffffffffffffffffffffffffffffffffffff1673ffffffffffffffffffffffffffffffffffffffff16815260200160018201548152505081526020019060010190611c52565b50505050905061205b565b60405160200180807f73656c6c65720000000000000000000000000000000000000000000000000000815250600601905060405160208183030381529060405280519060200120856040516020018082805190602001908083835b60208310611d6d5780518252602082019150602081019050602083039250611d4a565b6001836020036101000a038019825116818451168082178552505050505050905001915050604051602081830303815290604052805190602001201415611e6d576003805480602002602001604051908101604052809291908181526020016000905b82821015611e6257838290600052602060002090600202016040518060400160405290816000820160009054906101000a900473ffffffffffffffffffffffffffffffffffffffff1673ffffffffffffffffffffffffffffffffffffffff1673ffffffffffffffffffffffffffffffffffffffff16815260200160018201548152505081526020019060010190611dd0565b50505050905061205a565b60405160200180807f696e73706563746f720000000000000000000000000000000000000000000000815250600901905060405160208183030381529060405280519060200120856040516020018082805190602001908083835b60208310611eeb5780518252602082019150602081019050602083039250611ec8565b6001836020036101000a038019825116818451168082178552505050505050905001915050604051602081830303815290604052805190602001201415611feb576004805480602002602001604051908101604052809291908181526020016000905b82821015611fe057838290600052602060002090600202016040518060400160405290816000820160009054906101000a900473ffffffffffffffffffffffffffffffffffffffff1673ffffffffffffffffffffffffffffffffffffffff1673ffffffffffffffffffffffffffffffffffffffff16815260200160018201548152505081526020019060010190611f4e565b505050509050612059565b6040517f08c379a00000000000000000000000000000000000000000000000000000000081526004018080602001828103825260128152602001807f6e6f2073756368207573657220747970652e000000000000000000000000000081525060200191505060405180910390fd5b5b5b60008090505b81518110156120c7578473ffffffffffffffffffffffffffffffffffffffff1682828151811061208d57fe5b60200260200101516000015173ffffffffffffffffffffffffffffffffffffffff1614156120ba57600192505b8080600101915050612061565b50819250505092915050565b6000806000905060008090505b6006805490508110156121255783600682815481106120fb57fe5b906000526020600020906003020160000154141561211857600191505b80806001019150506120e0565b5080915050919050565b60405180606001604052806000815260200160008152602001600073ffffffffffffffffffffffffffffffffffffffff1681525090565b6040518060a0016040528060008152602001600073ffffffffffffffffffffffffffffffffffffffff168152602001600073ffffffffffffffffffffffffffffffffffffffff168152602001600081526020016121c16121c7565b81525090565b60405180606001604052806000815260200160008152602001600073ffffffffffffffffffffffffffffffffffffffff168152509056fe4170706f696e74656420696e73706563746f7220646f65736e742065786973742e416374696f6e2063616e206f6e6c7920626520706572666f726d65642062792073656c6c6572732e416374696f6e2063616e206f6e6c7920626520706572666f726d6564206279206275796572732e416374696f6e2063616e206f6e6c7920626520706572666f726d656420627920696e73706563746f72732ea265627a7a723158209556932e342875368adb88d109a605f15f546b7961545277d2a9f4ff9ae4e87d64736f6c63430005100032",
  "source": "pragma solidity ^0.5.0;\r\nimport \"./ERC20.sol\";\r\nimport \"./ERC721Full.sol\";\r\n\r\ncontract Trade_Template {\r\n\r\n    address _owner = msg.sender;\r\n    ERC20 erc20Contract;\r\n    person[] buyers;\r\n    person[] sellers;\r\n    person[] inspectors;\r\n    uint totalSales = 0;\r\n\r\n    struct product {\r\n        uint prodId;\r\n        uint price;\r\n        address seller;\r\n    }\r\n\r\n    struct sale {\r\n        uint saleId;\r\n        address buyer;\r\n        address appointedInspector;\r\n        uint quantity;\r\n        product prod;\r\n    }\r\n\r\n    struct person {\r\n        address personAcct;\r\n        uint transactions;\r\n    }\r\n\r\n    product[] productList;\r\n    sale[] saleList;\r\n\r\n    constructor(ERC20 erc20Address) public {\r\n        erc20Contract = erc20Address;\r\n    }\r\n\r\n  modifier onlyOwner() {\r\n      require(msg.sender == _owner, \"owner only action.\");\r\n      _;\r\n  }\r\n\r\n  modifier onlyBuyer() {\r\n      require(checkIfUserExist('buyer', msg.sender), \"Action can only be performed by buyers.\");\r\n    _;\r\n  }\r\n\r\n  modifier onlySeller() {\r\n       require(checkIfUserExist('seller', msg.sender), \"Action can only be performed by sellers.\");\r\n    _;\r\n  }\r\n\r\n  modifier onlyInspector() {\r\n       require(checkIfUserExist('inspector', msg.sender), \"Action can only be performed by inspectors.\");\r\n    _;\r\n  }\r\n\r\n  function checkIfUserExist(string memory userType, address user) internal view returns (bool) {\r\n      bool userExist = false;\r\n      person[] memory userArray;\r\n      if (keccak256(abi.encodePacked(userType)) == keccak256(abi.encodePacked('buyer'))) {\r\n          userArray = buyers;\r\n      }\r\n      else if (keccak256(abi.encodePacked(userType)) == keccak256(abi.encodePacked('seller'))) {\r\n          userArray = sellers;\r\n      }\r\n      else if (keccak256(abi.encodePacked(userType)) == keccak256(abi.encodePacked('inspector'))) {\r\n          userArray = inspectors;\r\n      }\r\n      else {\r\n          revert(\"no such user type.\");\r\n      }\r\n\r\n      for (uint i=0; i<userArray.length; i++) {\r\n          if (userArray[i].personAcct == user) {\r\n              userExist = true;\r\n          }\r\n      }\r\n      return userExist;\r\n  }\r\n\r\n  function checkProductID(uint prodId) internal view returns (bool) {\r\n      bool productExist = false;\r\n      for (uint i=0; i<productList.length; i++) {\r\n          if (productList[i].prodId == prodId) {\r\n              productExist = true;\r\n          }\r\n      }\r\n      return productExist;\r\n  }\r\n\r\n  function registerBuyer(address buyer) public onlyOwner{\r\n      if (checkIfUserExist('buyer', buyer)) {\r\n          revert(\"Buyer already exists.\");\r\n      }\r\n      buyers.push(person(buyer, 0));\r\n  }\r\n\r\n  function registerSeller(address seller) public onlyOwner{\r\n      if (checkIfUserExist('seller', seller)) {\r\n          revert(\"Seller already exists.\");\r\n      }\r\n      sellers.push(person(seller, 0));\r\n  }\r\n\r\n  function registerInspector(address inspector) public onlyOwner{\r\n      if (checkIfUserExist('inspector', inspector)) {\r\n          revert(\"Inspector already exists.\");\r\n      }\r\n      inspectors.push(person(inspector, 0));\r\n  }\r\n\r\n  function listProduct(uint prodId, uint price) public onlySeller{\r\n      require(checkProductID(prodId), \"product Id is in use.\");\r\n      require(price > 0, 'price must be > 0.');\r\n      product memory newProduct = product(prodId, price, msg.sender);\r\n      productList.push(newProduct);\r\n  }\r\n\r\n  function buyProduct(uint prodId, uint quantity, address appointedInspector) public onlyBuyer returns (uint saleId){\r\n      require(checkProductID(prodId), 'product ID does not exist.');\r\n      require(quantity>0, 'wtf bruh input in ur quantity');\r\n      require(checkIfUserExist('inspector', appointedInspector), 'Appointed inspector doesnt exist.');\r\n      product memory p;\r\n      for (uint i=0; i<productList.length; i++) {\r\n          if (productList[i].prodId == prodId) {\r\n              p = productList[i];\r\n          }\r\n      }\r\n      sale memory newSale = sale(totalSales, msg.sender, appointedInspector, quantity, p);\r\n      saleList.push(newSale);\r\n      erc20Contract.transferTokenFrom(msg.sender, address(this), p.price*quantity);\r\n      return totalSales++;\r\n  }\r\n\r\n  function acceptSale(uint saleId) public onlyInspector{\r\n      uint transferToSeller = saleList[saleId].prod.price * saleList[saleId].quantity;\r\n      address buyer;\r\n      address seller;\r\n      erc20Contract.transferTokenFrom(address(this), saleList[saleId].prod.seller, transferToSeller);\r\n      for (uint i=0; i<saleList.length; i++) {\r\n          if (saleList[i].saleId == saleId) {\r\n              buyer = saleList[i].buyer;\r\n              seller = saleList[i].prod.seller;\r\n              break;\r\n          }\r\n      }\r\n      for (uint i=0; i<buyers.length; i++) {\r\n          if (buyers[i].personAcct == buyer) {\r\n              buyers[i].transactions++;\r\n              break;\r\n          }\r\n      }\r\n      for (uint i=0; i<sellers.length; i++) {\r\n          if (sellers[i].personAcct == seller) {\r\n              sellers[i].transactions++;\r\n              break;\r\n          }\r\n      }\r\n      delete saleList[saleId];\r\n  }\r\n\r\n  function rejectSale(uint saleId) public onlyInspector{\r\n      uint transferBackToBuyer = saleList[saleId].prod.price * saleList[saleId].quantity;\r\n      erc20Contract.transferTokenFrom(address(this), saleList[saleId].buyer, transferBackToBuyer);\r\n      delete saleList[saleId];\r\n  }\r\n\r\n  function numBought(address buyer) public view returns (uint) { //number of successfully completed sales of each buyer\r\n        for (uint i=0; i<buyers.length; i++) {\r\n          if (buyers[i].personAcct == buyer) {\r\n              return buyers[i].transactions;\r\n          }\r\n      }\r\n\r\n  }\r\n\r\n  function numSold(address seller) public view returns (uint) { //number of successfully completed sales of each seller\r\n        for (uint i=0; i<sellers.length; i++) {\r\n          if (sellers[i].personAcct == seller) {\r\n              return sellers[i].transactions;\r\n          }\r\n      }\r\n\r\n  }\r\n\r\n}",
  "sourcePath": "C:\\Users\\TP_baseline\\Desktop\\Lab4\\contracts\\Trade_Template.sol",
  "compiler": {
    "name": "solc",
    "version": "0.5.16+commit.9c3226ce.Emscripten.clang"
  },
  "schemaVersion": "3.0.23",
  "updatedAt": "2020-02-26T14:34:40.264Z",
  "networkType": "ethereum",
  "devdoc": {
    "methods": {}
  },
  "userdoc": {
    "methods": {}
  }
}